(module-load "/home/phil/git/emacs-fix-message-parser/emacs-fix-parser.so")

(parse-fix-message "8=FIX.4.2|9=145|35=D|34=4|49=ABC_DEFG01|52=20090323-15:40:29|56=CCG|115=XYZ|11=NF0542/03232009|54=1|38=100|55=CVS|40=1|59=0|47=A|60=20090323-15:40:29|21=1|207=N|10=162|")

;; unexpected body length
(parse-fix-message "8=FIX.4.1|9=61|35=A|34=1|49=EXEC|52=20121105-23:24:06|56=BANZAI|98=0|108=30|10=003|8=FIX.4.1|9=61|35=A|34=1|49=BANZAI|52=20121105-23:24:06|56=EXEC|98=0|108=30|10=003|8=FIX.4.1|9=49|35=0|34=2|49=BANZAI|52=20121105-23:24:37|56=EXEC|10=228|8=FIX.4.1|9=49|35=0|34=2|49=EXEC|52=20121105-23:24:37|56=BANZAI|10=228|8=FIX.4.1|9=103|35=D|34=3|49=BANZAI|52=20121105-23:24:42|56=EXEC|11=1352157882577|21=1|38=10000|40=1|54=1|55=MSFT|59=0|10=062|8=FIX.4.1|9=139|35=8|34=3|49=EXEC|52=20121105-23:24:42|56=BANZAI|6=0|11=1352157882577|14=0|17=1|20=0|31=0|32=0|37=1|38=10000|39=0|54=1|55=MSFT|150=2|151=0|10=059|8=FIX.4.1|9=153|35=8|34=4|49=EXEC|52=20121105-23:24:42|56=BANZAI|6=12.3|11=1352157882577|14=10000|17=2|20=0|31=12.3|32=10000|37=2|38=10000|39=2|54=1|55=MSFT|150=2|151=0|10=230|8=FIX.4.1|9=103|35=D|34=4|49=BANZAI|52=20121105-23:24:55|56=EXEC|11=1352157895032|21=1|38=10000|40=1|54=1|55=ORCL|59=0|10=047|8=FIX.4.1|9=139|35=8|34=5|49=EXEC|52=20121105-23:24:55|56=BANZAI|6=0|11=1352157895032|14=0|17=3|20=0|31=0|32=0|37=3|38=10000|39=0|54=1|55=ORCL|150=2|151=0|10=049|8=FIX.4.1|9=153|35=8|34=6|49=EXEC|52=20121105-23:24:55|56=BANZAI|6=12.3|11=1352157895032|14=10000|17=4|20=0|31=12.3|32=10000|37=4|38=10000|39=2|54=1|55=ORCL|150=2|151=0|10=220|8=FIX.4.1|9=108|35=D|34=5|49=BANZAI|52=20121105-23:25:12|56=EXEC|11=1352157912357|21=1|38=10000|40=2|44=10|54=1|55=SPY|59=0|10=003|8=FIX.4.1|9=138|35=8|34=7|49=EXEC|52=20121105-23:25:12|56=BANZAI|6=0|11=1352157912357|14=0|17=5|20=0|31=0|32=0|37=5|38=10000|39=0|54=1|55=SPY|150=2|151=0|10=252|8=FIX.4.1|9=104|35=F|34=6|49=BANZAI|52=20121105-23:25:16|56=EXEC|11=1352157916437|38=10000|41=1352157912357|54=1|55=SPY|10=198|8=FIX.4.1|9=82|35=3|34=8|49=EXEC|52=20121105-23:25:16|56=BANZAI|45=6|58=Unsupported message type|10=000|8=FIX.4.1|9=104|35=F|34=7|49=BANZAI|52=20121105-23:25:25|56=EXEC|11=1352157925309|38=10000|41=1352157912357|54=1|55=SPY|10=197|8=FIX.4.1|9=82|35=3|34=9|49=EXEC|52=20121105-23:25:25|56=BANZAI|45=7|58=Unsupported message type|10=002|")

(parse-fix-message "8=FIX.4.2|9=145|35=D|34=4|49=ABC_DEFG01|52=20090323-15:40:29|56=CCG|115=XYZ|11=NF0542/03232009|54=1|38=100|55=CVS|40=1|59=0|47=A|60=20090323-15:40:29|21=1|207=N|10=162|")

(parse-fix-message "8=FIX.4.4|9=289|35=8|34=1090|49=TESTSELL1|52=20180920-18:23:53.671|56=TESTBUY1|6=113.35|11=636730640278898634|14=3500.0000000000|15=USD|17=20636730646335310000|21=2|31=113.35|32=3500|37=20636730646335310000|38=7000|39=1|40=1|54=1|55=MSFT|60=20180920-18:23:53.531|150=F|151=3500|453=1|448=BRK2|447=D|452=1|10=151|")


(message"ParsedFIXmessage:%s"(parse-fix-message"8=FIX.4.4|9=148|35=D|34=1080|49=TESTBUY1|52=20180920-18:14:19.508|56=TESTSELL1|11=636730640278898634|15=USD|21=2|38=7000|40=1|54=1|55=MSFT|60=20180920-18:14:19.492|10=092|"))
(message"ParsedFIXmessage:%s"(parse-fix-message"8=FIX.4.4|9=131|35=D|34=1122|49=CLIENT12|52=20240115-09:30:15.000|56=BROKER99|11=182738291|21=1|38=3000|40=2|54=1|55=MSFT|60=20240115-09:30:15.000|10=253|"))

(setq parsed(parse-fix-message"8=FIX.4.4|9=148|35=D|34=1080|49=TESTBUY1|52=20180920-18:14:19.508|56=TESTSELL1|11=636730640278898634|15=USD|21=2|38=7000|40=1|54=1|55=MSFT|60=20180920-18:14:19.492|10=092|"))
(mapcar 'carparsed) ;;integer keys
(assoc "Currency" (mapcar'cdrparsed)) ;;values are themselves an alist we can do a look up on
