(module-load "/home/phil/git/emacs-fix-message-parser/emacs-fix-parser.so")

(parse-fix-message "8=FIX.4.2|9=145|35=D|34=4|49=ABC_DEFG01|52=20090323-15:40:29|56=CCG|115=XYZ|11=NF0542/03232009|54=1|38=100|55=CVS|40=1|59=0|47=A|60=20090323-15:40:29|21=1|207=N|10=162|")


(parse-fix-message "8=FIX.4.1|9=61|35=A|34=1|49=EXEC|52=20121105-23:24:06|56=BANZAI|98=0|108=30|10=003|")
(parse-fix-message "8=FIX.4.1|9=61|35=A|34=1|49=BANZAI|52=20121105-23:24:06|56=EXEC|98=0|108=30|10=003|")
(parse-fix-message "8=FIX.4.1|9=49|35=0|34=2|49=BANZAI|52=20121105-23:24:37|56=EXEC|10=228|")
(parse-fix-message "8=FIX.4.1|9=49|35=0|34=2|49=EXEC|52=20121105-23:24:37|56=BANZAI|10=228|")
(parse-fix-message "8=FIX.4.1|9=103|35=D|34=3|49=BANZAI|52=20121105-23:24:42|56=EXEC|11=1352157882577|21=1|38=10000|40=1|54=1|55=MSFT|59=0|10=062|")
(parse-fix-message "8=FIX.4.1|9=139|35=8|34=3|49=EXEC|52=20121105-23:24:42|56=BANZAI|6=0|11=1352157882577|14=0|17=1|20=0|31=0|32=0|37=1|38=10000|39=0|54=1|55=MSFT|150=2|151=0|10=059|")
(parse-fix-message "8=FIX.4.1|9=153|35=8|34=4|49=EXEC|52=20121105-23:24:42|56=BANZAI|6=12.3|11=1352157882577|14=10000|17=2|20=0|31=12.3|32=10000|37=2|38=10000|39=2|54=1|55=MSFT|150=2|151=0|10=230|")
(parse-fix-message "8=FIX.4.1|9=103|35=D|34=4|49=BANZAI|52=20121105-23:24:55|56=EXEC|11=1352157895032|21=1|38=10000|40=1|54=1|55=ORCL|59=0|10=047|")
(parse-fix-message "8=FIX.4.1|9=139|35=8|34=5|49=EXEC|52=20121105-23:24:55|56=BANZAI|6=0|11=1352157895032|14=0|17=3|20=0|31=0|32=0|37=3|38=10000|39=0|54=1|55=ORCL|150=2|151=0|10=049|")
(parse-fix-message "8=FIX.4.1|9=153|35=8|34=6|49=EXEC|52=20121105-23:24:55|56=BANZAI|6=12.3|11=1352157895032|14=10000|17=4|20=0|31=12.3|32=10000|37=4|38=10000|39=2|54=1|55=ORCL|150=2|151=0|10=220|")
(parse-fix-message "8=FIX.4.1|9=108|35=D|34=5|49=BANZAI|52=20121105-23:25:12|56=EXEC|11=1352157912357|21=1|38=10000|40=2|44=10|54=1|55=SPY|59=0|10=003|")
(parse-fix-message "8=FIX.4.1|9=138|35=8|34=7|49=EXEC|52=20121105-23:25:12|56=BANZAI|6=0|11=1352157912357|14=0|17=5|20=0|31=0|32=0|37=5|38=10000|39=0|54=1|55=SPY|150=2|151=0|10=252|")
(parse-fix-message "8=FIX.4.1|9=104|35=F|34=6|49=BANZAI|52=20121105-23:25:16|56=EXEC|11=1352157916437|38=10000|41=1352157912357|54=1|55=SPY|10=198|")
(parse-fix-message "8=FIX.4.1|9=82|35=3|34=8|49=EXEC|52=20121105-23:25:16|56=BANZAI|45=6|58=Unsupported message type|10=000|")
(parse-fix-message "8=FIX.4.1|9=104|35=F|34=7|49=BANZAI|52=20121105-23:25:25|56=EXEC|11=1352157925309|38=10000|41=1352157912357|54=1|55=SPY|10=197|")
(parse-fix-message "8=FIX.4.1|9=82|35=3|34=9|49=EXEC|52=20121105-23:25:25|56=BANZAI|45=7|58=Unsupported message type|10=002|")

(parse-fix-message "8=FIX.4.2|9=145|35=D|34=4|49=ABC_DEFG01|52=20090323-15:40:29|56=CCG|115=XYZ|11=NF0542/03232009|54=1|38=100|55=CVS|40=1|59=0|47=A|60=20090323-15:40:29|21=1|207=N|10=162|")

(parse-fix-message "8=FIX.4.4|9=289|35=8|34=1090|49=TESTSELL1|52=20180920-18:23:53.671|56=TESTBUY1|6=113.35|11=636730640278898634|14=3500.0000000000|15=USD|17=20636730646335310000|21=2|31=113.35|32=3500|37=20636730646335310000|38=7000|39=1|40=1|54=1|55=MSFT|60=20180920-18:23:53.531|150=F|151=3500|453=1|448=BRK2|447=D|452=1|10=151|")

;; **************************** BIGGIE 0 change the body length 9=1040 -> 9=1024, then change the checksum
;; https://www.cmegroup.com/confluence/display/EPICSANDBOX/CME+STP+FIX+-+Samples
(parse-fix-message "8=FIX.4.4|9=1024|35=AE|49=CMESTPFIX2|56=trading_brokers_llc|34=77|50=STP|57=ace|52=20160404-20:05:27.788|571=153E0EDBF63001LD5A2150524515|487=2|856=101|568=d0f298f7-a285-4cd8-9207-9eab0630582a|828=1|880=153E0EDBF63001LD52|17=3090432|423=2|55=AUDK6|48=AUD|22=H|461=FFCPSX|167=FUT|200=201605|207=CME|1184=0|1147=100000|6070=100000|32=10|31=0.75990|75=20160404|715=20160404|442=1|60=20160404-20:05:24|552=1|54=2|11=C3090432|453=10|448=187|447=D|452=1|448=187|447=D|452=4|448=ace|447=D|452=7|448=CME|447=D|452=21|448=CME|447=D|452=22|448=ACECMEB01|447=D|452=24|802=1|523=1|803=26|448=A-66503|447=D|452=24|448=CMEG|447=D|452=30|448=btace1|447=D|452=36|802=1|523=Tammy Tester|803=9|448=CME1|447=D|452=62|802=1|523=TAMMY TESTER|803=9|578=CPC|582=4|10034=2|10027=CPC000003090432SN0001|10028=000CMEC000|10029=2|10030=0|10032=1|10027=CPCC000003090432SN0001|10028=000CMEC000|10029=2|10030=0|10032=2|1016=1|1013=1|1012=20160404-20:04:00|205=20160516|779=20160404-20:05:24.517|1003=100002|1040=153E0EDBF63001LD5A|939=0|1430=X|996=Ccy|10025=AUD|10026=USD|10=137|")
(parse-fix-message "8=FIX.4.4|9=1066|35=AE|49=CMESTPFIX2|56=trading_brokers_llc|34=62|50=STP|57=ace|52=20160404-19:59:39.788|571=153E13D0F020004D93B02145938392|487=2|856=101|568=d0f298f7-a285-4cd8-9207-9eab0630582a|828=1|880=153E13D0F020004D93A8|17=3090431|423=2|55=BAJ6 P3900|48=BA|22=H|461=OPEXCS|167=OPT|200=201604|202=39.0|207=NYMEX|201=0|1184=0|1147=1000|6070=1000|711=1|309=CY|305=H|310=FUT|313=201604|308=NYMEX|32=1500|31=1.00|75=20160404|715=20160404|753=1|707=PREM|708=1500000.00|1055=USD|442=1|60=20160404-19:59:38|552=1|54=2|11=C3090431|453=10|448=072|447=D|452=1|448=350|447=D|452=4|448=ace|447=D|452=7|448=CME|447=D|452=21|448=NYMEX|447=D|452=22|448=072ACETEST|447=D|452=24|802=1|523=1|803=26|448=A-46323|447=D|452=24|448=CMEG|447=D|452=30|448=btace1|447=D|452=36|802=1|523=Tammy Tester|803=9|448=CME1|447=D|452=62|802=1|523=TAMMY TESTER|803=9|578=CPC|582=4|10034=1|10027=CPC000003090431SN0001|10028=1010000023|10029=2|10030=0|1016=1|1013=1|1012=20160404-19:52:00|205=20160429|779=20160404-19:59:38.392|1003=100014|1040=153E13D0F020004D93B0|939=0|1430=X|996=Bbl|997=D|10026=USD|10037=50000|10=213|")

(message"ParsedFIXmessage:%s"(parse-fix-message"8=FIX.4.4|9=148|35=D|34=1080|49=TESTBUY1|52=20180920-18:14:19.508|56=TESTSELL1|11=636730640278898634|15=USD|21=2|38=7000|40=1|54=1|55=MSFT|60=20180920-18:14:19.492|10=092|"))
(message"ParsedFIXmessage:%s"(parse-fix-message"8=FIX.4.4|9=131|35=D|34=1122|49=CLIENT12|52=20240115-09:30:15.000|56=BROKER99|11=182738291|21=1|38=3000|40=2|54=1|55=MSFT|60=20240115-09:30:15.000|10=253|"))

(setq parsed(parse-fix-message"8=FIX.4.4|9=148|35=D|34=1080|49=TESTBUY1|52=20180920-18:14:19.508|56=TESTSELL1|11=636730640278898634|15=USD|21=2|38=7000|40=1|54=1|55=MSFT|60=20180920-18:14:19.492|10=092|"))
(mapcar 'carparsed) ;;integer keys
(assoc "Currency" (mapcar'cdrparsed)) ;;values are themselves an alist we can do a look up on
